:1000000092EF05F00000000000EF00F0000000009B
:0A0010000000000000000000F3D71C
:0C001C0045B002D08B9601D08B861200FC
:0C00280045B002D08B9801D08B881200EC
:0C00340045B002D0899801D089881200E4
:0C00400045B002D08D9201D08D821200DC
:0C004C0045B002D08B9E01D08B8E1200BC
:0C00580045B002D08D9401D08D841200C0
:0C00640045B002D08B9A01D08B8A1200AC
:0C00700045B002D08B9401D08B841200AC
:0C007C0045B002D08A9001D08A801200AA
:0C00880045B002D08B9E01D08B8E120080
:1000940045C06AFF016A0150000A05E1000E68B01C
:0C00A400010E016EF8D76ACF01F01200C7
:0C00B00045B002D08B9801D08B88120064
:0C00BC0045B002D08B9801D08B88120058
:0C00C80045B002D0899201D0898212005C
:0C00D40045B002D08B9C01D08B8C120038
:0C00E00045B002D08B9601D08B86120038
:0C00EC0045B002D08B9A01D08B8A120024
:0C00F80045B002D08F9401D08F8412001C
:0C01040045B002D08F9001D08F80120017
:0C01100045B002D08D9001D08D8012000F
:0C011C0045B002D08A9401D08A84120001
:0C01280045B002D08B9601D08B861200EF
:0C01340045B002D08F9201D08F821200E3
:0C01400045B002D08B9801D08B881200D3
:0C014C0045B002D08B9801D08B881200C7
:0C01580045B002D08D9601D08D861200BB
:0C01640045B002D08A9201D08A821200BD
:0C01700045B002D08B9601D08B861200A7
:0C017C0045B002D08B9601D08B8612009B
:0C01880045B002D08B9801D08B8812008B
:0C01940045B002D08B9C01D08B8C120077
:0C01A00045B002D0899401D0898412007F
:0C01AC0045B002D08B9A01D08B8A120063
:0C01B80045B002D0899001D0898012006F
:1001C40045C0C9FF016A0150000A05E1000EC7B02D
:0C01D400010E016EF8D7C9CF01F0120037
:0E01E000ACB202D00000FCD745C0ADFF12004B
:0C01EE0045B002D08B9201D08B82120031
:0C01FA0045B002D08B9001D08B80120029
:0C02060045B002D08B9601D08B86120010
:100212000F0121B302D00000FBD745C01CFF120022
:10022200FF0E2D6EFF0E2E6EFF0E2F6EFF0E306E26
:10023200C40E316E010E326E450E336E000E346EF8
:10024200949A4150040A02E1948601D094969488CB
:10025200C66AC79CC79E4150C6124350C61242503E
:10026200C712435205E04450000AD8B4C78C03D0E9
:0A0272004452D8A4C78CC68A1200BB
:10027C00F250026EF29E0500FF6A0150FE6E0050B5
:08028C00FD6E02BEF28E1200AD
:100294003BC0F6FF3CC0F7FF3DC0F8FF0900F5CFB7
:1002A40021F00900F5CF22F00900F5CF23F0090071
:1002B400F5CF24F0080E3B24F66E000E3C20F76EBA
:1002C400000E3D20F86E0900F5CF25F00900F5CFAA
:1002D40026F00900F5CF27F00900F5CF28F0040E29
:1002E4003B24F66E000E3C20F76E000E3D20F86EA7
:1002F4000900F5CF29F00900F5CF2AF00900F5CF60
:100304002BF00900F5CF2CF0180E3B24F66E000EEE
:100314003C20F76E000E3D20F86E0900F5CF15F075
:100324000900F5CF16F00900F5CF17F00900F5CF55
:0403340018F01200AB
:10033800090E0B6E1E0E0C6EE40E0D6E0D2EFED702
:0C0348000C2EFCD70B2EFAD70000120080
:100354003BC0F6FF3CC0F7FF3DC0F8FF0900F5CFF6
:1003640041F0040E3B24F66E000E3C20F76E000EA6
:100374003D20F86E0900F5CF42F0080E3B24F66EDE
:10038400000E3C20F76E000E3D20F86E0900F5CFFC
:1003940043F00C0E3B24F66E000E3C20F76E000E6C
:1003A4003D20F86E0900F5CF44F039DF000E006EF1
:0203B400120035
:1003B6003BC0F6FF3CC0F7FF3DC0F8FF0900F5CF94
:1003C60041F0040E3B24F66E000E3C20F76E000E44
:1003D6003D20F86E0900F5CF42F0080E3B24F66E7C
:1003E600000E3C20F76E000E3D20F86E0900F5CF9A
:1003F60043F00C0E3B24F66E000E3C20F76E000E0A
:100406003D20F86E0900F5CF44F008DF000E006EBF
:020416001200D2
:100418003BC0F6FF3CC0F7FF3DC0F8FF0900F5CF31
:1004280041F0040E3B24F66E000E3C20F76E000EE1
:100438003D20F86E0900F5CF42F0080E3B24F66E19
:10044800000E3C20F76E000E3D20F86E0900F5CF37
:1004580043F00C0E3B24F66E000E3C20F76E000EA7
:100468003D20F86E0900F5CF44F0D7DE000E006E8F
:02047800120070
:10047A003BC0F6FF3CC0F7FF3DC0F8FF0900F5CFCF
:10048A0019F00900F5CF1AF00900F5CF1BF00900A1
:10049A00F5CF1CF0040E3B24F66E000E3C20F76EDE
:1004AA00000E3D20F86E0900F5CF1DF00900F5CFCA
:1004BA001EF00900F5CF1FF00900F5CF20F0120059
:1004CA004DD03CB002D0929201D092820F01259376
:1004DA006AD03CB002D0929801D0928864D03CB0E5
:1004EA0002D0969201D096825ED03CB002D0949609
:1004FA0001D0948658D03CB002D0949801D0948808
:10050A0052D03CB002D0949A01D0948A4CD03CB0DC
:10051A0002D0949401D0948446D03CB002D09392F5
:10052A0001D0938240D03CB002D0949E01D0948EE8
:10053A003AD03CB002D0949C01D0948C34D03CB0D8
:10054A0002D0949601D094862ED03CB002D09498D2
:10055A0001D0948828D0010E006E27D03B50000AA3
:10056A00B0E03B50010AB5E03B50020AB8E03B500C
:10057A00030ABBE03B50040ABEE03B50050AC1E057
:10058A003B50060AC4E03B50070AC7E03B50080A42
:10059A00CAE03B50090ACDE03B500A0AD0E03B5082
:0C05AA000B0AD3E0D8D7000E006E120040
:1005B6004DD03CB002D0929001D092800F0125918F
:1005C6006AD03CB002D0949001D0948064D03CB004
:1005D60002D0969001D096805ED03CB002D0949620
:1005E60001D0948658D03CB002D0949801D094881B
:1005F60052D03CB002D0949A01D0948A4CD03CB0F0
:1006060002D0949201D0948246D03CB002D093900E
:1006160001D0938040D03CB002D0949E01D0948EFD
:100626003AD03CB002D0949C01D0948C34D03CB0EB
:1006360002D0949601D094862ED03CB002D09498E5
:1006460001D0948828D0010E006E27D03B50000AB6
:10065600B0E03B50010AB5E03B50020AB8E03B501F
:10066600030ABBE03B50040ABEE03B50050AC1E06A
:100676003B50060AC4E03B50070AC7E03B50080A55
:10068600CAE03B50090ACDE03B500A0AD0E03B5095
:0C0696000B0AD3E0D8D7000E006E120053
:1006A2003BC03FF03CC040F03DC000F03EC001F016
:1006B200010E3D5E000E3E5A0050011012E01BC0BA
:1006C200E1FF1CC0E2FF3FC0E9FF40C0EAFFEECFFE
:1006D200E6FF19C000F01AC001F0CFDD3F4A402A00
:0406E200E3D7120048
:1006E600520E0B6E2B0E0C6E000E0D6E0D2EFED7DF
:0C06F6000C2EFCD70B2EFAD700001200CF
:1007020051D03CB002D0929401D092840F01259531
:100712006ED03CB002D0969601D0968668D03CB09E
:1007220002D0969401D0968462D03CB002D09496C6
:1007320001D094865CD03CB002D0949801D09488C9
:1007420056D03CB002D0949A01D0948A50D03CB09A
:1007520002D0989001D098804AD03CB002D09394B5
:1007620001D0938444D03CB002D0989401D09884B4
:100772000F0123953CD03CB002D0989201D09882D0
:100782000F01239334D03CB002D0949601D09486CA
:100792002ED03CB002D0949801D0948828D0010E7B
:1007A200006E27D03B50000AACE03B50010AB1E09A
:1007B2003B50020AB4E03B50030AB7E03B50040A44
:1007C200BAE03B50050ABDE03B50060AC0E03B5090
:1007D200070AC3E03B50080AC6E03B50090ACBE0D7
:1007E2003B500A0AD0E03B500B0AD3E0D8D7000EA8
:0407F200006E120083
:1007F60015D036C03BF037C03CF0DADE19D036C033
:100806003BF037C03CF05EDE13D036C03BF037C05D
:100816003CF074DF0DD0010E006E0AD03550000A90
:10082600E8E03550010AEBE03550020AEEE0F3D776
:020836001200AE
:100838001BD036C03BF037C03CF038C03DF086DDF9
:100848001DD036C03BF037C03CF038C03DF0E0DD8D
:1008580015D036C03BF037C03CF038C03DF0A7DDBE
:100868000DD0010E006E0AD03550000AE2E0355076
:0E087800010AE7E03550020AECE0F3D7120067
:1008860023C0E1FF24C0E2FF010EE66E21C000F0A6
:0808960022C001F0F0DC1200A9
:10089E0017C0E1FF18C0E2FF35C0E6FF15C000F03B
:0808AE0016C001F0E4DC1200A9
:1008B600000E3510036E36507009046E04C000F049
:1008C600016A00C037F0FF0E0314386E27C0E1FF3F
:1008D60028C0E2FFE66A25C000F026C001F0CBDCA6
:1008E600370E3B6E000E3C6E020E3D6E000E3E6EE7
:1008F600D5DE27C0E1FF28C0E2FF010EE66E25C067
:0A09060000F026C001F0B7DC12007B
:1009100038C03BF039C03CF03AC03DF0AEDD35C0E8
:100920003BF036C03CF037C03DF0B4DC27C0E1FFFF
:1009300028C0E2FF010EE66E25C000F026C001F0DF
:040940009DDC120028
:100944002BC0E1FF2CC0E2FF010EE66E29C000F0CF
:100954002AC001F091DCEEDC2BC0E1FF2CC0E2FFE9
:10096400E66A29C000F02AC001F086DCBADE2BC09A
:10097400E1FF2CC0E2FF010EE66E29C000F02AC0A0
:0609840001F07ADC120014
:10098A00356A366A376A32DF356A010E366E376A79
:10099A002DDF356A020E366E376A28DF356A060E93
:1009AA00366E376A23DF356A8E0E366E0B0E376E59
:1009BA00000E386E3CDF090E0B6E1E0E0C6EE40E36
:1009CA000D6E0D2EFED70C2EFCD70B2EFAD700007B
:0209DA00120009
:1009DC000900F5CFE6FF0006FBE10106F9E1120084
:1009EC002E0E356E0B0E366E000E376E9E0E386E5A
:1009FC000B0E396E000E3A6E85DF9EDF3EDF000E69
:060A0C00356E47DF120009
:100A1200A60E356E0E0E366E4DDFF40E0B6E820E86
:100A22000C6E050E0D6E0D2EFED70C2EFCD70B2E66
:100A3200FAD7B80E356E0B0E366E3CDFF40E0B6E27
:100A4200820E0C6E050E0D6E0D2EFED70C2EFCD7EF
:100A52000B2EFAD7CA0E356E080E366E2BDFF40E49
:100A62000B6E820E0C6E050E0D6E0D2EFED70C2E29
:100A7200FCD70B2EFAD79C0E356E050E366E1ADF9A
:100A8200F40E0B6E820E0C6E050E0D6E0D2EFED741
:100A92000C2EFCD70B2EFAD7EE0E356E020E366EEA
:100AA20009DFF40E0B6E820E0C6E050E0D6E0D2E0E
:100AB200FED70C2EFCD70B2EFAD79C0E356E050EE8
:100AC200366EF8DEF40E0B6E820E0C6E050E0D6E97
:100AD2000D2EFED70C2EFCD70B2EFAD7CA0E356E72
:100AE200080E366EE7DEF40E0B6E820E0C6E050EED
:100AF2000D6E0D2EFED70C2EFCD70B2EFAD7B80E8C
:100B0200356E0B0E366ED6DEF40E0B6E820E0C6E4A
:100B1200050E0D6E0D2EFED70C2EFCD70B2EFAD71E
:020B22001200BF
:0A0B240032DF62DF74DFFED7FFD777
:100B2E00B8014500FA0145001001450006024500D6
:100B3E00B0004500AC014500EE0145007C004500CB
:100B4E0088004500D4004500E0004500BC0045008B
:100B5E00FFFFFFFFFFFFFFFFFFFFFFFFFFFFFFFF97
:100B6E00FFFFFFFFFFFFFFFFFFFFFFFFFFFFFFFF87
:100B7E00FFFFFFFFFFFFFFFFFFFFFFFFFFFFFFFF77
:100B8E000200000000000000000000000100000054
:080B9E00C4014500FFFFFFFF49
:020000040030CA
:0E00000015137F7CF98B91FFFFC0FFE0FF40DE
:00000001FF
